:100000000C942A000C94B4080C9421090C94340923
:100010000C943C000C943C000C943C000C943C0070
:100020000C943C000C943C000C943C000C94420A50
:100030000C943C000C943C000C943C000C943C0050
:100040000C943C000C943C000C943C000C943C0040
:100050000C943C0011241FBECFE5D8E0DEBFCDBF1D
:1000600020E0A0E6B0E001C01D92A436B207E1F79F
:100070000E949A020C94470C0C940000CF93DF93DB
:10008000CDB7DEB70E946C0A6DE382E00E9478076C
:1000900041E063E081E00E94A20541E067E083E087
:1000A0000E94A2050000DF91CF910895CF93DF93C6
:1000B0001F92CDB7DEB7898341E062E082E00E9403
:1000C0008D0640E063E082E00E948D0640E064E03F
:1000D00082E00E948D0640E065E082E00E948D068D
:1000E00089810E94BF0000000F90DF91CF91089599
:1000F000CF93DF931F92CDB7DEB7898340E062E0F4
:1001000082E00E948D0640E063E082E00E948D065E
:1001100040E064E082E00E948D0641E065E082E01C
:100120000E948D0689810E94CD0000000F90DF9112
:10013000CF910895CF93DF931F92CDB7DEB7898318
:1001400040E062E082E00E948D0641E063E082E0F0
:100150000E948D0640E064E082E00E948D0641E04E
:1001600065E082E00E948D0689810E94BF0089813E
:100170000E94CD0000000F90DF91CF910895CF93A2
:10018000DF931F92CDB7DEB7898389810E94A009D2
:1001900000000F90DF91CF910895CF93DF931F92CE
:1001A000CDB7DEB7898389810E945C0A00000F9079
:1001B000DF91CF910895CF93DF93CDB7DEB780E085
:1001C0000E94BF0080E00E94CD000000DF91CF912F
:1001D0000895CF93DF9300D0CDB7DEB79A8389839C
:1001E00041E065E083E00E94A2050E94CB0989817D
:1001F0009A810E941A0A00000F900F90DF91CF9110
:100200000895CF93DF93CDB7DEB741E060E082E0A1
:100210000E94A2050E9447090E9458090E94AF0748
:1002200061E080E00E94C5070000DF91CF91089552
:10023000CF93DF93CDB7DEB7AE970FB6F894DEBF9E
:100240000FBECDBF41E060E082E00E948D0680E0FD
:1002500090E0A0E2B1E489839A83AB83BC832BEA6C
:100260003AEA4AEA5EE369817A818B819C810E9445
:10027000CB0BDC01CB018B8B9C8BAD8BBE8B20E041
:1002800030E040E85EE369817A818B819C810E9445
:10029000CB0BDC01CB018F8B988FA98FBA8F20E01D
:1002A00030E040E85FE36B897C898D899E890E94FC
:1002B000AB0A88231CF481E08B8FB2C020E03FEFB3
:1002C0004FE757E46F89788D898D9A8D0E94C60B10
:1002D00018160CF07BC020E030E04AE754E4698156
:1002E0007A818B819C810E94B00ADC01CB018C8FCA
:1002F0009D8FAE8FBF8F20E030E04AE753E46C8DD6
:100300007D8D8E8D9F8D0E94CB0BDC01CB0188A350
:1003100099A3AAA3BBA320E030E040E85FE368A173
:1003200079A18AA19BA10E94AB0A88232CF481E0C9
:1003300090E09DA38CA33FC020E03FEF4FE757E440
:1003400068A179A18AA19BA10E94C60B18164CF541
:1003500020E030E040E251E46C8D7D8D8E8D9F8DEC
:100360000E94CB0BDC01CB01BC01CD010E94220B12
:10037000DC01CB019DA38CA30FC089E190E09FA37A
:100380008EA38EA19FA10197F1F79FA38EA38CA1AD
:100390009DA101979DA38CA38CA19DA1892B69F799
:1003A0003FC068A179A18AA19BA10E94220BDC0118
:1003B000CB019DA38CA38CA19DA199A788A788A5FB
:1003C00099A50197F1F799A788A72AC020E030E006
:1003D0004FE753E46B897C898D899E890E94C60B07
:1003E0001816ACF46F89788D898D9A8D0E94220B36
:1003F000DC01CB019BA78AA78AA59BA59DA78CA7FB
:100400008CA59DA50197F1F79DA78CA70FC06B89BF
:100410007C898D899E890E94220BDC01CB018B8F08
:100420008B8D8EA78EA58A95F1F78EA740E060E0B0
:1004300082E00E948D0680E090E0A0E7B2E48D8328
:100440009E83AF83B88720E030E04AE753E46D81B4
:100450007E818F8198850E94CB0BDC01CB0189873F
:100460009A87AB87BC8720E030E040E85FE369858E
:100470007A858B859C850E94AB0A88232CF481E0C9
:1004800090E09E878D873FC020E03FEF4FE757E425
:1004900069857A858B859C850E94C60B18164CF55C
:1004A00020E030E040E251E46D817E818F819885CB
:1004B0000E94CB0BDC01CB01BC01CD010E94220BC1
:1004C000DC01CB019E878D870FC089E190E0988B7E
:1004D0008F878F8598890197F1F7988B8F878D8506
:1004E0009E8501979E878D878D859E85892B69F7CF
:1004F00014C069857A858B859C850E94220BDC015E
:10050000CB019E878D878D859E859A8B898B898966
:100510009A890197F1F79A8B898B8091610090916C
:100520006200AE960FB6F894DEBF0FBECDBFDF916E
:10053000CF9108950F931F93CF93DF93CDB7DEB77D
:10054000CC54D1090FB6F894DEBF0FBECDBF0E94C8
:100550003E000E94010180E29EE40E94E9001E82AA
:100560001D820E9418019E838D838D819E814E97EE
:1005700008F0E4C20E94DB008CED95E09A83898349
:10058000FBC089819A810E942E0A80E090E0AAE750
:10059000B4E48F8B988FA98FBA8F20E030E04AE7C0
:1005A00053E46F89788D898D9A8D0E94CB0BDC0185
:1005B000CB018B8F9C8FAD8FBE8F20E030E040E869
:1005C0005FE36B8D7C8D8D8D9E8D0E94AB0A8823A1
:1005D0002CF481E090E098A38F8F3FC020E03FEFA4
:1005E0004FE757E46B8D7C8D8D8D9E8D0E94C60BE1
:1005F00018164CF520E030E040E251E46F89788D28
:10060000898D9A8D0E94CB0BDC01CB01BC01CD0101
:100610000E94220BDC01CB0198A38F8F0FC089E1D0
:1006200090E09AA389A389A19AA10197F1F79AA3CF
:1006300089A38F8D98A1019798A38F8F8F8D98A1F3
:10064000892B69F714C06B8D7C8D8D8D9E8D0E94DA
:10065000220BDC01CB0198A38F8F8F8D98A19CA3D7
:100660008BA38BA19CA10197F1F79CA38BA30E9464
:1006700018019E838D838D819E814F9708F476C0EB
:1006800084EF0E94560080E090E0AAEFB3E48F83ED
:100690009887A987BA8720E030E04AE753E46F8162
:1006A000788589859A850E94CB0BDC01CB018DA3CF
:1006B0009EA3AFA3B8A720E030E040E85FE36DA1C0
:1006C0007EA18FA198A50E94AB0A88232CF481E01B
:1006D00090E09AA789A73FC020E03FEF4FE757E49B
:1006E0006DA17EA18FA198A50E94C60B18164CF58E
:1006F00020E030E040E251E46F81788589859A8579
:100700000E94CB0BDC01CB01BC01CD010E94220B6E
:10071000DC01CB019AA789A70FC089E190E09CA7D3
:100720008BA78BA59CA50197F1F79CA78BA789A503
:100730009AA501979AA789A789A59AA5892B69F7F0
:1007400021C06DA17EA18FA198A50E94220BDC0182
:10075000CB019AA789A789A59AA59EA78DA78DA544
:100760009EA50197F1F79EA78DA70CC089819A815C
:100770008C599F4F9A83898389819A81813D9740C3
:1007800008F4FFCE80ED97E09C838B8311C18B81B1
:100790009C810E942E0A80E090E0AAE7B4E48B8757
:1007A0009C87AD87BE8720E030E04AE753E46B8545
:1007B0007C858D859E850E94CB0BDC01CB018FA7AC
:1007C00098ABA9ABBAAB20E030E040E85FE36FA59F
:1007D00078A989A99AA90E94AB0A88232CF481E000
:1007E00090E09CAB8BAB3FC020E03FEF4FE757E47E
:1007F0006FA578A989A99AA90E94C60B18164CF56D
:1008000020E030E040E251E46B857C858D859E855B
:100810000E94CB0BDC01CB01BC01CD010E94220B5D
:10082000DC01CB019CAB8BAB0FC089E190E09EABB0
:100830008DAB8DA99EA90197F1F79EAB8DAB8BA9CE
:100840009CA901979CAB8BAB8BA99CA9892B69F7C1
:1008500014C06FA578A989A99AA90E94220BDC016E
:10086000CB019CAB8BAB8BA99CA998AF8FAB8FA90D
:1008700098AD0197F1F798AF8FAB0E9418019E8356
:100880008D838D819E814F9708F48CC084EF0E94E8
:10089000780080E090E0AAEFB3E48F87988BA98B73
:1008A000BA8B20E030E04AE753E46F857889898984
:1008B0009A890E94CB0BDC01CB0189AF9AAFABAF19
:1008C000BCAF20E030E040E85FE369AD7AAD8BADCE
:1008D0009CAD0E94AB0A88232CF481E090E09EAF8F
:1008E0008DAF49C020E03FEF4FE757E469AD7AADE7
:1008F0008BAD9CAD0E94C60B18169CF520E030E035
:1009000040E251E46F85788989899A890E94CB0BEE
:10091000DC01CB01BC01CD010E94220BDC01CB012B
:100920009EAF8DAF19C029E130E0CE01CF96FC011A
:1009300031832083CE01CF96FC0180819181019784
:10094000F1F79E01215C3F4FF901918380838DADCA
:100950009EAD01979EAF8DAF8DAD9EAD892B19F7E2
:100960002DC069AD7AAD8BAD9CAD0E94220BDC0130
:10097000CB019EAF8DAFCE018F5B9F4F2DAD3EADB6
:10098000FC0131832083CE018F5B9F4FFC0180816E
:1009900091810197F1F79E012F5B3F4FF901918300
:1009A00080830CC08B819C81845691099C838B83AE
:1009B0008B819C81883E934008F0E9CE8CED95E0D8
:1009C0000E942E0A80E090E0AAE7B4E48B8B9C8B17
:1009D000AD8BBE8B8E010D5B1F4F20E030E04AE7F0
:1009E00053E46B897C898D899E890E94CB0BDC0145
:1009F000CB01F80180839183A283B383CE018D5B09
:100A00009F4F20E030E040E85FE3FC0160817181AE
:100A1000828193810E94AB0A88234CF4CE01895BCA
:100A20009F4F21E030E0FC013183208369C0CE017B
:100A30008D5B9F4F20E03FEF4FE757E4FC01608163
:100A40007181828193810E94C60B18160CF046C0FA
:100A500020E030E040E251E46B897C898D899E89F9
:100A60000E94CB0BDC01CB018E01095B1F4FBC0147
:100A7000CD010E94220BDC01CB01F8019183808320
:100A800024C0CE01875B9F4F29E130E0FC01318318
:100A90002083CE01875B9F4FFC018081918101976C
:100AA000F1F79E01275B3F4FF90191838083CE01CF
:100AB000895B9F4F9E01295B3F4FF9012081318166
:100AC00021503109FC0131832083CE01895B9F4F86
:100AD000FC0180819181892BA1F62CC08E01095BDC
:100AE0001F4FCE018D5B9F4FFC0160817181828120
:100AF00093810E94220BDC01CB01F801918380835A
:100B0000CE01855B9F4F9E01295B3F4FF9012081FC
:100B10003181FC0131832083CE01855B9F4FFC0135
:100B2000808191810197F1F79E01255B3F4FF9018B
:100B30009183808388EC0E949A0013CD88EC0E94F8
:100B40009A000FCDCF93DF9300D01F92CDB7DEB7C1
:100B500089836A834B838B81813009F068C08981E6
:100B6000882F90E08130910511F1823091051CF4BD
:100B7000892B41F0CBC08230910571F1039709F4C4
:100B800040C0C4C08AE390E02AE330E0F90120814C
:100B9000622F2A81422F50E021E030E002C0220F74
:100BA000331F4A95E2F7262BFC012083AFC087E371
:100BB00090E027E330E0F9012081622F2A81422F63
:100BC00050E021E030E002C0220F331F4A95E2F7E7
:100BD000262BFC0120839AC084E390E024E330E0DC
:100BE000F9012081622F2A81422F50E021E030E07C
:100BF00002C0220F331F4A95E2F7262BFC01208307
:100C000085C081E390E021E330E0F9012081622F8B
:100C10002A81422F50E021E030E002C0220F331F32
:100C20004A95E2F7262BFC01208300006FC08B81E0
:100C3000882309F06BC08981882F90E0813091056D
:100C400019F1823091051CF4892B41F05FC082308C
:100C5000910581F1039709F443C058C08AE390E0FD
:100C60002AE330E0F9012081622F2A81422F50E0EF
:100C700021E030E002C0220F331F4A95E2F72095B1
:100C80002623FC01208342C087E390E027E330E085
:100C9000F9012081622F2A81422F50E021E030E0CB
:100CA00002C0220F331F4A95E2F720952623FC014C
:100CB00020832CC084E390E024E330E0F90120811C
:100CC000622F2A81422F50E021E030E002C0220F43
:100CD000331F4A95E2F720952623FC01208316C096
:100CE00081E390E021E330E0F9012081622F2A8145
:100CF000422F50E021E030E002C0220F331F4A951E
:100D0000E2F720952623FC012083000000000F90CD
:100D10000F900F90DF91CF910895CF93DF9300D084
:100D20001F92CDB7DEB789836A834B838B81813075
:100D300009F068C08981882F90E08130910511F118
:100D4000823091051CF4892B41F0CBC08230910593
:100D500071F1039709F440C0C4C08BE390E02BE32A
:100D600030E0F9012081622F2A81422F50E021E0FA
:100D700030E002C0220F331F4A95E2F7262BFC0118
:100D80002083AFC088E390E028E330E0F9012081C0
:100D9000622F2A81422F50E021E030E002C0220F72
:100DA000331F4A95E2F7262BFC0120839AC085E386
:100DB00090E025E330E0F9012081622F2A81422F63
:100DC00050E021E030E002C0220F331F4A95E2F7E5
:100DD000262BFC01208385C082E390E022E330E0F3
:100DE000F9012081622F2A81422F50E021E030E07A
:100DF00002C0220F331F4A95E2F7262BFC01208305
:100E000000006FC08B81882309F06BC08981882F17
:100E100090E08130910519F1823091051CF4892B05
:100E200041F05FC08230910581F1039709F443C01E
:100E300058C08BE390E02BE330E0F9012081622F72
:100E40002A81422F50E021E030E002C0220F331F00
:100E50004A95E2F720952623FC01208342C088E3CF
:100E600090E028E330E0F9012081622F2A81422FAF
:100E700050E021E030E002C0220F331F4A95E2F734
:100E800020952623FC0120832CC085E390E025E3F8
:100E900030E0F9012081622F2A81422F50E021E0C9
:100EA00030E002C0220F331F4A95E2F72095262337
:100EB000FC01208316C082E390E022E330E0F901D8
:100EC0002081622F2A81422F50E021E030E002C0D1
:100ED000220F331F4A95E2F720952623FC01208339
:100EE000000000000F900F900F90DF91CF910895B8
:100EF000CF93DF9300D0CDB7DEB789836A83898132
:100F0000882F90E08130910591F0823091051CF49A
:100F1000892B39F01EC08230910579F0039799F042
:100F200018C08AE390E02A81FC01208312C087E385
:100F300090E02A81FC0120830CC084E390E02A81A8
:100F4000FC01208306C081E390E02A81FC0120831C
:100F5000000000000F900F90DF91CF910895CF9384
:100F6000DF93CDB7DEB740E062E083E00E94A205E8
:100F70008BE590E02BE530E0F90120812064FC0155
:100F800020830000DF91CF910895CF93DF9300D0AD
:100F9000CDB7DEB789836A8389818230F1F48A8193
:100FA000882F90E08130910519F0029759F0D6C052
:100FB00084E590E024E530E0F90120812064FC0123
:100FC0002083CCC084E590E024E530E0F901208165
:100FD0002F7BFC0120830000C1C08981813009F092
:100FE0005FC08A81882F90E081309105F9F08230CE
:100FF00091051CF4892B39F0B1C08230910549F17B
:101000000397D1F1ABC085E590E025E530E0F9012B
:1010100020812B7FFC01208385E590E025E530E0F1
:10102000F9012081277FFC01208398C085E590E0AD
:1010300025E530E0F90120812460FC01208385E56D
:1010400090E025E530E0F90120812860FC01208353
:1010500085C085E590E025E530E0F90120812B7F12
:10106000FC01208385E590E025E530E0F901208151
:101070002860FC01208372C085E590E025E530E022
:10108000F9012081277FFC01208385E590E025E59B
:1010900030E0F90120812460FC01208300005EC063
:1010A0008A81882F90E081309105F9F08230910596
:1010B0001CF4892B39F052C08230910549F1039715
:1010C000D1F14CC085E590E025E530E0F9012081C3
:1010D0002E7FFC01208385E590E025E530E0F901D5
:1010E00020812D7FFC01208339C085E590E025E536
:1010F00030E0F90120812160FC01208385E590E04A
:1011000025E530E0F90120812260FC01208326C022
:1011100085E590E025E530E0F90120812E7FFC0196
:10112000208385E590E025E530E0F901208122600B
:10113000FC01208313C085E590E025E530E0F9014E
:1011400020812D7FFC01208385E590E025E530E0BE
:10115000F90120812160FC012083000000000F9034
:101160000F90DF91CF9108951F920F9200905F0032
:101170000F9211240F931F932F933F934F935F93DD
:101180006F937F938F939F93AF93BF93EF93FF934F
:10119000CF93DF93CDB7DEB780916300882369F4E6
:1011A00080E00E94B0091092600062E080E00E943E
:1011B000C50781E0809363002DC08091630081307A
:1011C00049F580916000882F90E0182F00270E9439
:1011D000C009882F90E0800F911F90936200809348
:1011E000610080916100909162009C01AFE9B6E4DA
:1011F0000E94380C929582958F7089279F7089275D
:10120000909362008093610061E080E00E94C507D6
:10121000109263000000DF91CF91FF91EF91BF9199
:10122000AF919F918F917F916F915F914F913F917E
:101230002F911F910F910F9000925F000F901F90C0
:1012400018951F920F9200905F000F921124CF9378
:10125000DF93CDB7DEB70000DF91CF910F90009202
:101260005F000F901F9018951F920F9200905F00E3
:101270000F921124CF93DF93CDB7DEB70000DF913B
:10128000CF910F9000925F000F901F901895CF9311
:10129000DF93CDB7DEB78FE590E02FE530E0F901C1
:1012A00020812068FC0120830000DF91CF91089508
:1012B000CF93DF93CDB7DEB789E590E029E530E045
:1012C000F90120812160FC01208383E590E023E582
:1012D00030E0F9012081287FFC01208383E590E044
:1012E00023E530E0F90120812260FC01208383E5C1
:1012F00090E023E530E0F90120812064FC012083A7
:1013000083E590E023E530E0F90120812860FC01CD
:10131000208383E590E023E530E0F90120812F7EF2
:10132000FC01208383E590E023E530E0F901208192
:101330002062FC01208300000000DF91CF9108951E
:10134000CF93DF931F92CDB7DEB789838CE590E012
:101350002981FC01208300000F90DF91CF91089537
:10136000CF93DF931F92CDB7DEB7898382E590E0FC
:101370002981FC01208300000F90DF91CF91089517
:10138000CF93DF93CDB7DEB782E590E0FC0180819B
:10139000DF91CF910895CF93DF93CDB7DEB78EE481
:1013A00090E02EE430E0F9012081287FFC012083C9
:1013B0008EE490E02EE430E0F90120812260FC010F
:1013C00020838FE490E02FE430E0F90120812C703D
:1013D000FC0120838EE490E02EE430E0F9012081CE
:1013E000277EFC0120838EE490E02EE430E0F901BA
:1013F00020812861FC0120838FE490E02FE430E01D
:10140000F90120812260FC0120838FE490E02FE429
:1014100030E0F90120812068FC0120838FE490E016
:101420002FE430E0F9012081FC0120830000DF91EE
:10143000CF910895CF93DF9300D0CDB7DEB79A83D5
:10144000898386E490E029813A81FC0131832083FD
:1014500000000F900F90DF91CF910895CF93DF930D
:1014600000D0CDB7DEB79A8389838AE490E02981E2
:101470003A81FC013183208300000F900F90DF91AF
:10148000CF9108951F920F9200905F000F92112448
:101490008F93CF93DF93CDB7DEB7809160008F5FDE
:1014A000809360000000DF91CF918F910F900092A8
:1014B0005F000F901F901895CF93DF931F92CDB7C9
:1014C000DEB7898383E490E02981FC01208300005A
:1014D0000F90DF91CF910895CF93DF93CDB7DEB713
:1014E00085E490E025E430E0F9012081287FFC01CB
:1014F000208385E490E025E430E0F901208122603A
:10150000FC01208385E490E025E430E0F9012081AE
:101510002064FC01208385E490E025E430E0F901BB
:1015200020812860FC01208385E490E025E430E000
:10153000F90120812F7EFC01208385E490E025E4E1
:1015400030E0F90120812062FC01208300000000CE
:10155000DF91CF9108950E94510B08F481E0089526
:101560000E94C40A0C948C0B0E94850B58F00E94B8
:101570007E0B40F029F45F3F29F00C94750B51115C
:101580000C94C00B0C947B0B0E949D0B68F3992369
:10159000B1F3552391F3951B550BBB27AA2762176F
:1015A0007307840738F09F5F5F4F220F331F441F7C
:1015B000AA1FA9F335D00E2E3AF0E0E832D09150B0
:1015C0005040E695001CCAF72BD0FE2F29D0660F9D
:1015D000771F881FBB1F261737074807AB07B0E8E0
:1015E00009F0BB0B802DBF01FF2793585F4F3AF0E6
:1015F0009E3F510578F00C94750B0C94C00B5F3F27
:10160000E4F3983ED4F3869577956795B795F7956B
:101610009F5FC9F7880F911D9695879597F9089553
:10162000E1E0660F771F881FBB1F621773078407EF
:10163000BA0720F0621B730B840BBA0BEE1F88F7FE
:10164000E09508950E94A50B88F09F5798F0B92F58
:101650009927B751B0F0E1F0660F771F881F991FE7
:101660001AF0BA95C9F714C0B13091F00E94BF0BBF
:10167000B1E008950C94BF0B672F782F8827B85FCF
:1016800039F0B93FCCF3869577956795B395D9F73F
:101690003EF490958095709561957F4F8F4F9F4F49
:1016A0000895990F0008550FAA0BE0E8FEEF1616F3
:1016B0001706E807F907C0F012161306E407F50746
:1016C00098F0621B730B840B950B39F40A2661F0BA
:1016D000232B242B252B21F408950A2609F4A1405D
:1016E000A6958FEF811D811D089597F99F6780E86A
:1016F00070E060E008959FEF80EC089500240A9464
:101700001616170618060906089500240A941216DC
:101710001306140605060895092E0394000C11F40F
:10172000882352F0BB0F40F4BF2B11F460FF04C0BC
:101730006F5F7F4F8F4F9F4F089557FD9058440F15
:10174000551F59F05F3F71F04795880F97FB991F20
:1017500061F09F3F79F087950895121613061406DD
:10176000551FF2CF4695F1DF08C01616170618066A
:10177000991FF1CF86957105610508940895E89445
:10178000BB2766277727CB0197F908950E94510B55
:1017900008F48FEF08950E94DE0B0C948C0B0E94CE
:1017A0007E0B38F00E94850B20F0952311F00C94ED
:1017B000750B0C947B0B11240C94C00B0E949D0B99
:1017C00070F3959FC1F3950F50E0551F629FF00194
:1017D000729FBB27F00DB11D639FAA27F00DB11DAD
:1017E000AA1F649F6627B00DA11D661F829F222736
:1017F000B00DA11D621F739FB00DA11D621F839FBD
:10180000A00D611D221F749F3327A00D611D231F92
:10181000849F600D211D822F762F6A2F11249F57E0
:1018200050409AF0F1F088234AF0EE0FFF1FBB1FE3
:10183000661F771F881F91505040A9F79E3F5105A2
:1018400080F00C94750B0C94C00B5F3FE4F3983E52
:10185000D4F3869577956795B795F795E7959F5F4C
:10186000C1F7FE2B880F911D9695879597F90895DE
:10187000A29FB001B39FC001A39F700D811D1124D1
:10188000911DB29F700D811D1124911D0895F89432
:02189000FFCF88
:00000001FF
